{
  "contractName": "MultiSigWallet",
  "abi": [
    {
      "inputs": [
        {
          "internalType": "address[]",
          "name": "_owners",
          "type": "address[]"
        },
        {
          "internalType": "uint256",
          "name": "_numConfirmationsRequired",
          "type": "uint256"
        }
      ],
      "stateMutability": "nonpayable",
      "type": "constructor"
    },
    {
      "anonymous": false,
      "inputs": [
        {
          "indexed": true,
          "internalType": "address",
          "name": "owner",
          "type": "address"
        },
        {
          "indexed": true,
          "internalType": "uint256",
          "name": "txIndex",
          "type": "uint256"
        }
      ],
      "name": "ApproveTransaction",
      "type": "event"
    },
    {
      "anonymous": false,
      "inputs": [
        {
          "indexed": true,
          "internalType": "address",
          "name": "sender",
          "type": "address"
        },
        {
          "indexed": false,
          "internalType": "uint256",
          "name": "amount",
          "type": "uint256"
        },
        {
          "indexed": false,
          "internalType": "uint256",
          "name": "balance",
          "type": "uint256"
        }
      ],
      "name": "Deposit",
      "type": "event"
    },
    {
      "anonymous": false,
      "inputs": [
        {
          "indexed": true,
          "internalType": "address",
          "name": "owner",
          "type": "address"
        },
        {
          "indexed": true,
          "internalType": "uint256",
          "name": "txIndex",
          "type": "uint256"
        }
      ],
      "name": "ExecuteTransaction",
      "type": "event"
    },
    {
      "anonymous": false,
      "inputs": [
        {
          "indexed": true,
          "internalType": "address",
          "name": "owner",
          "type": "address"
        },
        {
          "indexed": true,
          "internalType": "uint256",
          "name": "txIndex",
          "type": "uint256"
        }
      ],
      "name": "RejectTransaction",
      "type": "event"
    },
    {
      "anonymous": false,
      "inputs": [
        {
          "indexed": true,
          "internalType": "address",
          "name": "owner",
          "type": "address"
        },
        {
          "indexed": true,
          "internalType": "uint256",
          "name": "txIndex",
          "type": "uint256"
        },
        {
          "indexed": true,
          "internalType": "address",
          "name": "to",
          "type": "address"
        },
        {
          "indexed": false,
          "internalType": "uint256",
          "name": "value",
          "type": "uint256"
        },
        {
          "indexed": false,
          "internalType": "bytes",
          "name": "data",
          "type": "bytes"
        }
      ],
      "name": "SubmitTransaction",
      "type": "event"
    },
    {
      "inputs": [
        {
          "internalType": "uint256",
          "name": "",
          "type": "uint256"
        }
      ],
      "name": "isApproved",
      "outputs": [
        {
          "internalType": "bool",
          "name": "",
          "type": "bool"
        }
      ],
      "stateMutability": "view",
      "type": "function",
      "constant": true
    },
    {
      "inputs": [
        {
          "internalType": "address",
          "name": "",
          "type": "address"
        }
      ],
      "name": "isOwner",
      "outputs": [
        {
          "internalType": "bool",
          "name": "",
          "type": "bool"
        }
      ],
      "stateMutability": "view",
      "type": "function",
      "constant": true
    },
    {
      "inputs": [
        {
          "internalType": "uint256",
          "name": "",
          "type": "uint256"
        }
      ],
      "name": "isRejected",
      "outputs": [
        {
          "internalType": "bool",
          "name": "",
          "type": "bool"
        }
      ],
      "stateMutability": "view",
      "type": "function",
      "constant": true
    },
    {
      "inputs": [],
      "name": "lastTx",
      "outputs": [
        {
          "internalType": "uint256",
          "name": "",
          "type": "uint256"
        }
      ],
      "stateMutability": "view",
      "type": "function",
      "constant": true
    },
    {
      "inputs": [],
      "name": "numConfirmationsRequired",
      "outputs": [
        {
          "internalType": "uint256",
          "name": "",
          "type": "uint256"
        }
      ],
      "stateMutability": "view",
      "type": "function",
      "constant": true
    },
    {
      "inputs": [
        {
          "internalType": "uint256",
          "name": "",
          "type": "uint256"
        }
      ],
      "name": "owners",
      "outputs": [
        {
          "internalType": "address",
          "name": "",
          "type": "address"
        }
      ],
      "stateMutability": "view",
      "type": "function",
      "constant": true
    },
    {
      "inputs": [
        {
          "internalType": "uint256",
          "name": "",
          "type": "uint256"
        }
      ],
      "name": "transactions",
      "outputs": [
        {
          "internalType": "address",
          "name": "to",
          "type": "address"
        },
        {
          "internalType": "uint256",
          "name": "value",
          "type": "uint256"
        },
        {
          "internalType": "bytes",
          "name": "data",
          "type": "bytes"
        },
        {
          "internalType": "bool",
          "name": "executed",
          "type": "bool"
        },
        {
          "internalType": "uint256",
          "name": "numApprovals",
          "type": "uint256"
        },
        {
          "internalType": "uint256",
          "name": "numRejections",
          "type": "uint256"
        }
      ],
      "stateMutability": "view",
      "type": "function",
      "constant": true
    },
    {
      "stateMutability": "payable",
      "type": "receive",
      "payable": true
    },
    {
      "inputs": [],
      "name": "noPendingTx",
      "outputs": [
        {
          "internalType": "bool",
          "name": "",
          "type": "bool"
        }
      ],
      "stateMutability": "view",
      "type": "function",
      "constant": true
    },
    {
      "inputs": [
        {
          "internalType": "address",
          "name": "_to",
          "type": "address"
        },
        {
          "internalType": "uint256",
          "name": "_value",
          "type": "uint256"
        },
        {
          "internalType": "bytes",
          "name": "_data",
          "type": "bytes"
        }
      ],
      "name": "submitTransaction",
      "outputs": [],
      "stateMutability": "nonpayable",
      "type": "function"
    },
    {
      "inputs": [
        {
          "internalType": "uint256",
          "name": "_txIndex",
          "type": "uint256"
        }
      ],
      "name": "approveTransaction",
      "outputs": [],
      "stateMutability": "nonpayable",
      "type": "function"
    },
    {
      "inputs": [
        {
          "internalType": "uint256",
          "name": "_txIndex",
          "type": "uint256"
        }
      ],
      "name": "executeTransaction",
      "outputs": [],
      "stateMutability": "nonpayable",
      "type": "function"
    },
    {
      "inputs": [
        {
          "internalType": "uint256",
          "name": "_txIndex",
          "type": "uint256"
        }
      ],
      "name": "rejectTransaction",
      "outputs": [],
      "stateMutability": "nonpayable",
      "type": "function"
    },
    {
      "inputs": [],
      "name": "getOwners",
      "outputs": [
        {
          "internalType": "address[]",
          "name": "",
          "type": "address[]"
        }
      ],
      "stateMutability": "view",
      "type": "function",
      "constant": true
    },
    {
      "inputs": [],
      "name": "getTransactionCount",
      "outputs": [
        {
          "internalType": "uint256",
          "name": "",
          "type": "uint256"
        }
      ],
      "stateMutability": "view",
      "type": "function",
      "constant": true
    },
    {
      "inputs": [
        {
          "internalType": "uint256",
          "name": "_txIndex",
          "type": "uint256"
        }
      ],
      "name": "getTransaction",
      "outputs": [
        {
          "internalType": "address",
          "name": "to",
          "type": "address"
        },
        {
          "internalType": "uint256",
          "name": "value",
          "type": "uint256"
        },
        {
          "internalType": "bytes",
          "name": "data",
          "type": "bytes"
        },
        {
          "internalType": "bool",
          "name": "executed",
          "type": "bool"
        },
        {
          "internalType": "uint256",
          "name": "numApprovals",
          "type": "uint256"
        },
        {
          "internalType": "uint256",
          "name": "numRejections",
          "type": "uint256"
        }
      ],
      "stateMutability": "view",
      "type": "function",
      "constant": true
    }
  ],
  "bytecode": "0x60806040523480156200001157600080fd5b5060405162002710380380620027108339818101604052810190620000379190620003e2565b60008251116200007e576040517f08c379a000000000000000000000000000000000000000000000000000000000815260040162000075906200058c565b60405180910390fd5b60008111801562000090575081518111155b620000d2576040517f08c379a0000000000000000000000000000000000000000000000000000000008152600401620000c990620005d0565b60405180910390fd5b60005b8251811015620002f95760008382815181106200011b577f4e487b7100000000000000000000000000000000000000000000000000000000600052603260045260246000fd5b60200260200101519050600073ffffffffffffffffffffffffffffffffffffffff168173ffffffffffffffffffffffffffffffffffffffff16141562000198576040517f08c379a00000000000000000000000000000000000000000000000000000000081526004016200018f90620005ae565b60405180910390fd5b600160008273ffffffffffffffffffffffffffffffffffffffff1673ffffffffffffffffffffffffffffffffffffffff16815260200190815260200160002060009054906101000a900460ff161562000228576040517f08c379a00000000000000000000000000000000000000000000000000000000081526004016200021f906200056a565b60405180910390fd5b60018060008373ffffffffffffffffffffffffffffffffffffffff1673ffffffffffffffffffffffffffffffffffffffff16815260200190815260200160002060006101000a81548160ff0219169083151502179055506000819080600181540180825580915050600190039060005260206000200160009091909190916101000a81548173ffffffffffffffffffffffffffffffffffffffff021916908373ffffffffffffffffffffffffffffffffffffffff160217905550508080620002f090620006a4565b915050620000d5565b5080600281905550600019600681905550505062000784565b600062000329620003238462000626565b620005f2565b905080838252602082019050828560208602820111156200034957600080fd5b60005b858110156200037d578162000362888262000387565b8452602084019350602083019250506001810190506200034c565b5050509392505050565b600081519050620003988162000750565b92915050565b600082601f830112620003b057600080fd5b8151620003c284826020860162000312565b91505092915050565b600081519050620003dc816200076a565b92915050565b60008060408385031215620003f657600080fd5b600083015167ffffffffffffffff8111156200041157600080fd5b6200041f858286016200039e565b92505060206200043285828601620003cb565b9150509250929050565b60006200044b60108362000655565b91507f6f776e6572206e6f7420756e69717565000000000000000000000000000000006000830152602082019050919050565b60006200048d600f8362000655565b91507f6f776e65727320726571756972656400000000000000000000000000000000006000830152602082019050919050565b6000620004cf600d8362000655565b91507f696e76616c6964206f776e6572000000000000000000000000000000000000006000830152602082019050919050565b60006200051160288362000655565b91507f696e76616c6964206e756d626572206f6620726571756972656420636f6e666960008301527f726d6174696f6e730000000000000000000000000000000000000000000000006020830152604082019050919050565b6000602082019050818103600083015262000585816200043c565b9050919050565b60006020820190508181036000830152620005a7816200047e565b9050919050565b60006020820190508181036000830152620005c981620004c0565b9050919050565b60006020820190508181036000830152620005eb8162000502565b9050919050565b6000604051905081810181811067ffffffffffffffff821117156200061c576200061b62000721565b5b8060405250919050565b600067ffffffffffffffff82111562000644576200064362000721565b5b602082029050602081019050919050565b600082825260208201905092915050565b600062000673826200067a565b9050919050565b600073ffffffffffffffffffffffffffffffffffffffff82169050919050565b6000819050919050565b6000620006b1826200069a565b91507fffffffffffffffffffffffffffffffffffffffffffffffffffffffffffffffff821415620006e757620006e6620006f2565b5b600182019050919050565b7f4e487b7100000000000000000000000000000000000000000000000000000000600052601160045260246000fd5b7f4e487b7100000000000000000000000000000000000000000000000000000000600052604160045260246000fd5b6200075b8162000666565b81146200076757600080fd5b50565b62000775816200069a565b81146200078157600080fd5b50565b611f7c80620007946000396000f3fe6080604052600436106100ec5760003560e01c806333ea3dc81161008a578063a0e67e2b11610059578063a0e67e2b14610393578063c6427474146103be578063d0549b85146103e7578063ee22610b1461041257610143565b806333ea3dc8146102a75780637910867b146102e9578063927bfb0d146103265780639ace38c21461035157610143565b80631727fd10116100c65780631727fd10146101eb578063242232d1146102165780632e7700f01461023f5780632f54bf6e1461026a57610143565b8063025e7c271461014857806305bf37aa14610185578063098f076e146101ae57610143565b36610143573373ffffffffffffffffffffffffffffffffffffffff167f90890809c654f11d6e72a28fa60149770a0d11ec6c92319d6ceb2bb0a4ea1a153447604051610139929190611c24565b60405180910390a2005b600080fd5b34801561015457600080fd5b5061016f600480360381019061016a91906116cf565b61043b565b60405161017c9190611a39565b60405180910390f35b34801561019157600080fd5b506101ac60048036038101906101a791906116cf565b61047a565b005b3480156101ba57600080fd5b506101d560048036038101906101d091906116cf565b6107ee565b6040516101e29190611ade565b60405180910390f35b3480156101f757600080fd5b5061020061080e565b60405161020d9190611ade565b60405180910390f35b34801561022257600080fd5b5061023d600480360381019061023891906116cf565b6108ba565b005b34801561024b57600080fd5b50610254610c1d565b6040516102619190611bd9565b60405180910390f35b34801561027657600080fd5b50610291600480360381019061028c919061163f565b610c2a565b60405161029e9190611ade565b60405180910390f35b3480156102b357600080fd5b506102ce60048036038101906102c991906116cf565b610c4a565b6040516102e096959493929190611a54565b60405180910390f35b3480156102f557600080fd5b50610310600480360381019061030b91906116cf565b610d8b565b60405161031d9190611ade565b60405180910390f35b34801561033257600080fd5b5061033b610dab565b6040516103489190611bd9565b60405180910390f35b34801561035d57600080fd5b50610378600480360381019061037391906116cf565b610db1565b60405161038a96959493929190611a54565b60405180910390f35b34801561039f57600080fd5b506103a8610eb2565b6040516103b59190611abc565b60405180910390f35b3480156103ca57600080fd5b506103e560048036038101906103e09190611668565b610f40565b005b3480156103f357600080fd5b506103fc6111a9565b6040516104099190611bd9565b60405180910390f35b34801561041e57600080fd5b50610439600480360381019061043491906116cf565b6111af565b005b6000818154811061044b57600080fd5b906000526020600020016000915054906101000a900473ffffffffffffffffffffffffffffffffffffffff1681565b600160003373ffffffffffffffffffffffffffffffffffffffff1673ffffffffffffffffffffffffffffffffffffffff16815260200190815260200160002060009054906101000a900460ff16610506576040517f08c379a00000000000000000000000000000000000000000000000000000000081526004016104fd90611bb9565b60405180910390fd5b80600780549050811061054e576040517f08c379a000000000000000000000000000000000000000000000000000000000815260040161054590611b39565b60405180910390fd5b8160078181548110610589577f4e487b7100000000000000000000000000000000000000000000000000000000600052603260045260246000fd5b906000526020600020906006020160030160009054906101000a900460ff16156105e8576040517f08c379a00000000000000000000000000000000000000000000000000000000081526004016105df90611b79565b60405180910390fd5b826003600082815260200190815260200160002060003373ffffffffffffffffffffffffffffffffffffffff1673ffffffffffffffffffffffffffffffffffffffff16815260200190815260200160002060009054906101000a900460ff1615610687576040517f08c379a000000000000000000000000000000000000000000000000000000000815260040161067e90611b59565b60405180910390fd5b60016003600083815260200190815260200160002060003373ffffffffffffffffffffffffffffffffffffffff1673ffffffffffffffffffffffffffffffffffffffff16815260200190815260200160002060006101000a81548160ff02191690831515021790555060006007858154811061072c577f4e487b7100000000000000000000000000000000000000000000000000000000600052603260045260246000fd5b9060005260206000209060060201905060018160050160008282546107519190611d34565b9250508190555060025481600501546000805490506107709190611d8a565b10156107a35760016005600087815260200190815260200160002060006101000a81548160ff0219169083151502179055505b843373ffffffffffffffffffffffffffffffffffffffff167f37d7286dbb2f5a308161b6fdd908127173dffde6c58774bd9aecfc796d3c97f260405160405180910390a35050505050565b60056020528060005260406000206000915054906101000a900460ff1681565b6000806006549050600019600654141561082c5760019150506108b7565b600060078281548110610868577f4e487b7100000000000000000000000000000000000000000000000000000000600052603260045260246000fd5b906000526020600020906006020160030160009054906101000a900460ff16806108af57506005600083815260200190815260200160002060009054906101000a900460ff165b905080925050505b90565b600160003373ffffffffffffffffffffffffffffffffffffffff1673ffffffffffffffffffffffffffffffffffffffff16815260200190815260200160002060009054906101000a900460ff16610946576040517f08c379a000000000000000000000000000000000000000000000000000000000815260040161093d90611bb9565b60405180910390fd5b80600780549050811061098e576040517f08c379a000000000000000000000000000000000000000000000000000000000815260040161098590611b39565b60405180910390fd5b81600781815481106109c9577f4e487b7100000000000000000000000000000000000000000000000000000000600052603260045260246000fd5b906000526020600020906006020160030160009054906101000a900460ff1615610a28576040517f08c379a0000000000000000000000000000000000000000000000000000000008152600401610a1f90611b79565b60405180910390fd5b826003600082815260200190815260200160002060003373ffffffffffffffffffffffffffffffffffffffff1673ffffffffffffffffffffffffffffffffffffffff16815260200190815260200160002060009054906101000a900460ff1615610ac7576040517f08c379a0000000000000000000000000000000000000000000000000000000008152600401610abe90611b59565b60405180910390fd5b60016003600083815260200190815260200160002060003373ffffffffffffffffffffffffffffffffffffffff1673ffffffffffffffffffffffffffffffffffffffff16815260200190815260200160002060006101000a81548160ff021916908315150217905550600060078581548110610b6c577f4e487b7100000000000000000000000000000000000000000000000000000000600052603260045260246000fd5b906000526020600020906006020190506001816004016000828254610b919190611d34565b92505081905550600254816004015410610bd25760016004600087815260200190815260200160002060006101000a81548160ff0219169083151502179055505b843373ffffffffffffffffffffffffffffffffffffffff167ffa624aadd8a0eae4ee975eae5cf13c9803b361b7fa2d832427db6207c088219360405160405180910390a35050505050565b6000600780549050905090565b60016020528060005260406000206000915054906101000a900460ff1681565b600080606060008060008060078881548110610c8f577f4e487b7100000000000000000000000000000000000000000000000000000000600052603260045260246000fd5b906000526020600020906006020190508060000160009054906101000a900473ffffffffffffffffffffffffffffffffffffffff168160010154826002018360030160009054906101000a900460ff1684600401548560050154838054610cf590611e48565b80601f0160208091040260200160405190810160405280929190818152602001828054610d2190611e48565b8015610d6e5780601f10610d4357610100808354040283529160200191610d6e565b820191906000526020600020905b815481529060010190602001808311610d5157829003601f168201915b505050505093509650965096509650965096505091939550919395565b60046020528060005260406000206000915054906101000a900460ff1681565b60065481565b60078181548110610dc157600080fd5b90600052602060002090600602016000915090508060000160009054906101000a900473ffffffffffffffffffffffffffffffffffffffff1690806001015490806002018054610e1090611e48565b80601f0160208091040260200160405190810160405280929190818152602001828054610e3c90611e48565b8015610e895780601f10610e5e57610100808354040283529160200191610e89565b820191906000526020600020905b815481529060010190602001808311610e6c57829003601f168201915b5050505050908060030160009054906101000a900460ff16908060040154908060050154905086565b60606000805480602002602001604051908101604052809291908181526020018280548015610f3657602002820191906000526020600020905b8160009054906101000a900473ffffffffffffffffffffffffffffffffffffffff1673ffffffffffffffffffffffffffffffffffffffff1681526020019060010190808311610eec575b5050505050905090565b600160003373ffffffffffffffffffffffffffffffffffffffff1673ffffffffffffffffffffffffffffffffffffffff16815260200190815260200160002060009054906101000a900460ff16610fcc576040517f08c379a0000000000000000000000000000000000000000000000000000000008152600401610fc390611bb9565b60405180910390fd5b610fd461080e565b611013576040517f08c379a000000000000000000000000000000000000000000000000000000000815260040161100a90611b19565b60405180910390fd5b600060078054905090508060068190555060076040518060c001604052808673ffffffffffffffffffffffffffffffffffffffff168152602001858152602001848152602001600015158152602001600081526020016000815250908060018154018082558091505060019003906000526020600020906006020160009091909190915060008201518160000160006101000a81548173ffffffffffffffffffffffffffffffffffffffff021916908373ffffffffffffffffffffffffffffffffffffffff16021790555060208201518160010155604082015181600201908051906020019061110492919061150a565b5060608201518160030160006101000a81548160ff0219169083151502179055506080820151816004015560a0820151816005015550508373ffffffffffffffffffffffffffffffffffffffff16813373ffffffffffffffffffffffffffffffffffffffff167fd5a05bf70715ad82a09a756320284a1b54c9ff74cd0f8cce6219e79b563fe59d868660405161119b929190611bf4565b60405180910390a450505050565b60025481565b600160003373ffffffffffffffffffffffffffffffffffffffff1673ffffffffffffffffffffffffffffffffffffffff16815260200190815260200160002060009054906101000a900460ff1661123b576040517f08c379a000000000000000000000000000000000000000000000000000000000815260040161123290611bb9565b60405180910390fd5b806007805490508110611283576040517f08c379a000000000000000000000000000000000000000000000000000000000815260040161127a90611b39565b60405180910390fd5b81600781815481106112be577f4e487b7100000000000000000000000000000000000000000000000000000000600052603260045260246000fd5b906000526020600020906006020160030160009054906101000a900460ff161561131d576040517f08c379a000000000000000000000000000000000000000000000000000000000815260040161131490611b79565b60405180910390fd5b600060078481548110611359577f4e487b7100000000000000000000000000000000000000000000000000000000600052603260045260246000fd5b906000526020600020906006020190506004600085815260200190815260200160002060009054906101000a900460ff166113c9576040517f08c379a00000000000000000000000000000000000000000000000000000000081526004016113c090611b99565b60405180910390fd5b60018160030160006101000a81548160ff02191690831515021790555060008160000160009054906101000a900473ffffffffffffffffffffffffffffffffffffffff1673ffffffffffffffffffffffffffffffffffffffff168260010154836002016040516114399190611a22565b60006040518083038185875af1925050503d8060008114611476576040519150601f19603f3d011682016040523d82523d6000602084013e61147b565b606091505b50509050806114bf576040517f08c379a00000000000000000000000000000000000000000000000000000000081526004016114b690611af9565b60405180910390fd5b843373ffffffffffffffffffffffffffffffffffffffff167f5445f318f4f5fcfb66592e68e0cc5822aa15664039bd5f0ffde24c5a8142b1ac60405160405180910390a35050505050565b82805461151690611e48565b90600052602060002090601f016020900481019282611538576000855561157f565b82601f1061155157805160ff191683800117855561157f565b8280016001018555821561157f579182015b8281111561157e578251825591602001919060010190611563565b5b50905061158c9190611590565b5090565b5b808211156115a9576000816000905550600101611591565b5090565b60006115c06115bb84611c7e565b611c4d565b9050828152602081018484840111156115d857600080fd5b6115e3848285611e06565b509392505050565b6000813590506115fa81611f18565b92915050565b600082601f83011261161157600080fd5b81356116218482602086016115ad565b91505092915050565b60008135905061163981611f2f565b92915050565b60006020828403121561165157600080fd5b600061165f848285016115eb565b91505092915050565b60008060006060848603121561167d57600080fd5b600061168b868287016115eb565b935050602061169c8682870161162a565b925050604084013567ffffffffffffffff8111156116b957600080fd5b6116c586828701611600565b9150509250925092565b6000602082840312156116e157600080fd5b60006116ef8482850161162a565b91505092915050565b60006117048383611710565b60208301905092915050565b61171981611dbe565b82525050565b61172881611dbe565b82525050565b600061173982611cd3565b6117438185611cf6565b935061174e83611cae565b8060005b8381101561177f57815161176688826116f8565b975061177183611ce9565b925050600181019050611752565b5085935050505092915050565b61179581611dd0565b82525050565b60006117a682611cde565b6117b08185611d07565b93506117c0818560208601611e15565b6117c981611f07565b840191505092915050565b600081546117e181611e48565b6117eb8186611d18565b9450600182166000811461180657600181146118175761184a565b60ff1983168652818601935061184a565b61182085611cbe565b60005b8381101561184257815481890152600182019150602081019050611823565b838801955050505b50505092915050565b6000611860600983611d23565b91507f7478206661696c656400000000000000000000000000000000000000000000006000830152602082019050919050565b60006118a0600f83611d23565b91507f612074782069732070656e64696e6700000000000000000000000000000000006000830152602082019050919050565b60006118e0601183611d23565b91507f747820646f6573206e6f742065786973740000000000000000000000000000006000830152602082019050919050565b6000611920601b83611d23565b91507f616c726561647920726573706f6e64656420746f2074686520747800000000006000830152602082019050919050565b6000611960601383611d23565b91507f747820616c7265616479206578656375746564000000000000000000000000006000830152602082019050919050565b60006119a0601183611d23565b91507f63616e6e6f7420657865637574652074780000000000000000000000000000006000830152602082019050919050565b60006119e0600983611d23565b91507f6e6f74206f776e657200000000000000000000000000000000000000000000006000830152602082019050919050565b611a1c81611dfc565b82525050565b6000611a2e82846117d4565b915081905092915050565b6000602082019050611a4e600083018461171f565b92915050565b600060c082019050611a69600083018961171f565b611a766020830188611a13565b8181036040830152611a88818761179b565b9050611a97606083018661178c565b611aa46080830185611a13565b611ab160a0830184611a13565b979650505050505050565b60006020820190508181036000830152611ad6818461172e565b905092915050565b6000602082019050611af3600083018461178c565b92915050565b60006020820190508181036000830152611b1281611853565b9050919050565b60006020820190508181036000830152611b3281611893565b9050919050565b60006020820190508181036000830152611b52816118d3565b9050919050565b60006020820190508181036000830152611b7281611913565b9050919050565b60006020820190508181036000830152611b9281611953565b9050919050565b60006020820190508181036000830152611bb281611993565b9050919050565b60006020820190508181036000830152611bd2816119d3565b9050919050565b6000602082019050611bee6000830184611a13565b92915050565b6000604082019050611c096000830185611a13565b8181036020830152611c1b818461179b565b90509392505050565b6000604082019050611c396000830185611a13565b611c466020830184611a13565b9392505050565b6000604051905081810181811067ffffffffffffffff82111715611c7457611c73611ed8565b5b8060405250919050565b600067ffffffffffffffff821115611c9957611c98611ed8565b5b601f19601f8301169050602081019050919050565b6000819050602082019050919050565b60008190508160005260206000209050919050565b600081519050919050565b600081519050919050565b6000602082019050919050565b600082825260208201905092915050565b600082825260208201905092915050565b600081905092915050565b600082825260208201905092915050565b6000611d3f82611dfc565b9150611d4a83611dfc565b9250827fffffffffffffffffffffffffffffffffffffffffffffffffffffffffffffffff03821115611d7f57611d7e611e7a565b5b828201905092915050565b6000611d9582611dfc565b9150611da083611dfc565b925082821015611db357611db2611e7a565b5b828203905092915050565b6000611dc982611ddc565b9050919050565b60008115159050919050565b600073ffffffffffffffffffffffffffffffffffffffff82169050919050565b6000819050919050565b82818337600083830152505050565b60005b83811015611e33578082015181840152602081019050611e18565b83811115611e42576000848401525b50505050565b60006002820490506001821680611e6057607f821691505b60208210811415611e7457611e73611ea9565b5b50919050565b7f4e487b7100000000000000000000000000000000000000000000000000000000600052601160045260246000fd5b7f4e487b7100000000000000000000000000000000000000000000000000000000600052602260045260246000fd5b7f4e487b7100000000000000000000000000000000000000000000000000000000600052604160045260246000fd5b6000601f19601f8301169050919050565b611f2181611dbe565b8114611f2c57600080fd5b50565b611f3881611dfc565b8114611f4357600080fd5b5056fea2646970667358221220681c132e893bc3c3f0bb8816da840dacb253671e13c7f53a32227977b682a06664736f6c63430008000033",
  "immutableReferences": {},
  "source": "// SPDX-License-Identifier: MIT\r\npragma solidity ^0.8.0;\r\n\r\ncontract MultiSigWallet {\r\n    event Deposit(address indexed sender, uint amount, uint balance);\r\n    event SubmitTransaction(\r\n        address indexed owner,\r\n        uint indexed txIndex,\r\n        address indexed to,\r\n        uint value,\r\n        bytes data\r\n    );\r\n    event ApproveTransaction(address indexed owner, uint indexed txIndex);\r\n    event RejectTransaction(address indexed owner, uint indexed txIndex);\r\n    event ExecuteTransaction(address indexed owner, uint indexed txIndex);\r\n\r\n    address[] public owners;\r\n    mapping(address => bool) public isOwner;\r\n    uint public numConfirmationsRequired;\r\n\r\n    struct Transaction {\r\n        address to;\r\n        uint value;\r\n        bytes data;\r\n        bool executed;\r\n        uint numApprovals;\r\n        uint numRejections;\r\n    }\r\n\r\n    // mapping from tx index => owner => bool\r\n    mapping(uint => mapping(address => bool)) private responded;\r\n\r\n    mapping(uint => bool) public isApproved;\r\n    mapping(uint => bool) public isRejected;\r\n\r\n    uint public lastTx;\r\n\r\n    Transaction[] public transactions;\r\n\r\n    modifier onlyOwner() {\r\n        require(isOwner[msg.sender], \"not owner\");\r\n        _;\r\n    }\r\n\r\n    modifier txExists(uint _txIndex) {\r\n        require(_txIndex < transactions.length, \"tx does not exist\");\r\n        _;\r\n    }\r\n\r\n    modifier canSubmit() {\r\n        require(noPendingTx(), \"a tx is pending\");\r\n        _;\r\n    }\r\n\r\n    modifier notExecuted(uint _txIndex) {\r\n        require(!transactions[_txIndex].executed, \"tx already executed\");\r\n        _;\r\n    }\r\n\r\n    modifier notResponded(uint _txIndex) {\r\n        require(!responded[_txIndex][msg.sender], \"already responded to the tx\");\r\n        responded[_txIndex][msg.sender] = true;\r\n        _;\r\n    }\r\n\r\n    constructor(address[] memory _owners, uint _numConfirmationsRequired) {\r\n        require(_owners.length > 0, \"owners required\");\r\n        require(\r\n            _numConfirmationsRequired > 0 && _numConfirmationsRequired <= _owners.length,\r\n            \"invalid number of required confirmations\"\r\n        );\r\n\r\n        for (uint i = 0; i < _owners.length; i++) {\r\n            address owner = _owners[i];\r\n\r\n            require(owner != address(0), \"invalid owner\");\r\n            require(!isOwner[owner], \"owner not unique\");\r\n\r\n            isOwner[owner] = true;\r\n            owners.push(owner);\r\n        }\r\n\r\n        numConfirmationsRequired = _numConfirmationsRequired;\r\n        lastTx = ~uint(0);\r\n    }\r\n\r\n    receive() payable external {\r\n        emit Deposit(msg.sender, msg.value, address(this).balance);\r\n    }\r\n\r\n    function noPendingTx() public view returns(bool) {\r\n        uint _txIndex = lastTx;\r\n        if(lastTx == ~uint(0)) return true;\r\n        bool status = (transactions[_txIndex].executed) || (isRejected[_txIndex]);\r\n        return status;\r\n    }\r\n\r\n    function submitTransaction(address _to, uint _value, bytes memory _data)\r\n        public\r\n        onlyOwner\r\n        canSubmit\r\n    {\r\n        uint txIndex = transactions.length;\r\n        lastTx = txIndex;\r\n\r\n        transactions.push(Transaction({\r\n            to: _to,\r\n            value: _value,\r\n            data: _data,\r\n            executed: false,\r\n            numApprovals: 0,\r\n            numRejections: 0\r\n        }));\r\n\r\n        emit SubmitTransaction(msg.sender, txIndex, _to, _value, _data);\r\n    }\r\n\r\n    function approveTransaction(uint _txIndex)\r\n        public\r\n        onlyOwner\r\n        txExists(_txIndex)\r\n        notExecuted(_txIndex)\r\n        notResponded(_txIndex)\r\n    {\r\n        Transaction storage transaction = transactions[_txIndex];\r\n        transaction.numApprovals += 1;\r\n        if(transaction.numApprovals >= numConfirmationsRequired) isApproved[_txIndex] = true;\r\n\r\n        emit ApproveTransaction(msg.sender, _txIndex);\r\n    }\r\n\r\n    function executeTransaction(uint _txIndex)\r\n        public\r\n        onlyOwner\r\n        txExists(_txIndex)\r\n        notExecuted(_txIndex)\r\n    {\r\n        Transaction storage transaction = transactions[_txIndex];\r\n\r\n        require(\r\n            isApproved[_txIndex],\r\n            \"cannot execute tx\"\r\n        );\r\n\r\n        transaction.executed = true;\r\n\r\n        (bool success, ) = transaction.to.call{value: transaction.value}(transaction.data);\r\n        require(success, \"tx failed\");\r\n\r\n        emit ExecuteTransaction(msg.sender, _txIndex);\r\n    }\r\n\r\n    function rejectTransaction(uint _txIndex)\r\n        public\r\n        onlyOwner\r\n        txExists(_txIndex)\r\n        notExecuted(_txIndex)\r\n        notResponded(_txIndex)\r\n    {\r\n        Transaction storage transaction = transactions[_txIndex];\r\n\r\n        transaction.numRejections += 1;\r\n        if(owners.length - transaction.numRejections < numConfirmationsRequired) isRejected[_txIndex] = true;\r\n\r\n        emit RejectTransaction(msg.sender, _txIndex);\r\n    }\r\n\r\n    function getOwners() public view returns (address[] memory) {\r\n        return owners;\r\n    }\r\n\r\n    function getTransactionCount() public view returns (uint) {\r\n        return transactions.length;\r\n    }\r\n\r\n    function getTransaction(uint _txIndex)\r\n        public\r\n        view\r\n        returns (address to, uint value, bytes memory data, bool executed, uint numApprovals, uint numRejections)\r\n    {\r\n        Transaction storage transaction = transactions[_txIndex];\r\n\r\n        return (\r\n            transaction.to,\r\n            transaction.value,\r\n            transaction.data,\r\n            transaction.executed,\r\n            transaction.numApprovals,\r\n            transaction.numRejections\r\n        );\r\n    }\r\n}\r\n",
  "sourcePath": "C:/Users/sudip/Desktop/CryptoProjects/MultiSigWallet/contracts/MultiSigWallet.sol",
  "compiler": {
    "name": "solc",
    "version": "0.8.0+commit.c7dfd78e.Emscripten.clang"
  },
  "schemaVersion": "3.3.4",
  "updatedAt": "2021-05-27T06:18:54.206Z",
  "networkType": "ethereum",
  "devdoc": {
    "kind": "dev",
    "methods": {},
    "version": 1
  },
  "userdoc": {
    "kind": "user",
    "methods": {},
    "version": 1
  }
}