{
  "contractName": "MultiSigWallet",
  "abi": [
    {
      "inputs": [
        {
          "internalType": "address[]",
          "name": "_owners",
          "type": "address[]"
        },
        {
          "internalType": "uint256",
          "name": "_numConfirmationsRequired",
          "type": "uint256"
        }
      ],
      "stateMutability": "nonpayable",
      "type": "constructor"
    },
    {
      "anonymous": false,
      "inputs": [
        {
          "indexed": true,
          "internalType": "address",
          "name": "owner",
          "type": "address"
        },
        {
          "indexed": true,
          "internalType": "uint256",
          "name": "txIndex",
          "type": "uint256"
        }
      ],
      "name": "ApproveTransaction",
      "type": "event"
    },
    {
      "anonymous": false,
      "inputs": [
        {
          "indexed": true,
          "internalType": "address",
          "name": "sender",
          "type": "address"
        },
        {
          "indexed": false,
          "internalType": "uint256",
          "name": "amount",
          "type": "uint256"
        },
        {
          "indexed": false,
          "internalType": "uint256",
          "name": "balance",
          "type": "uint256"
        }
      ],
      "name": "Deposit",
      "type": "event"
    },
    {
      "anonymous": false,
      "inputs": [
        {
          "indexed": true,
          "internalType": "address",
          "name": "owner",
          "type": "address"
        },
        {
          "indexed": true,
          "internalType": "uint256",
          "name": "txIndex",
          "type": "uint256"
        }
      ],
      "name": "ExecuteTransaction",
      "type": "event"
    },
    {
      "anonymous": false,
      "inputs": [
        {
          "indexed": true,
          "internalType": "address",
          "name": "owner",
          "type": "address"
        },
        {
          "indexed": true,
          "internalType": "uint256",
          "name": "txIndex",
          "type": "uint256"
        }
      ],
      "name": "RejectTransaction",
      "type": "event"
    },
    {
      "anonymous": false,
      "inputs": [
        {
          "indexed": true,
          "internalType": "address",
          "name": "owner",
          "type": "address"
        },
        {
          "indexed": true,
          "internalType": "uint256",
          "name": "txIndex",
          "type": "uint256"
        },
        {
          "indexed": true,
          "internalType": "address",
          "name": "to",
          "type": "address"
        },
        {
          "indexed": false,
          "internalType": "uint256",
          "name": "value",
          "type": "uint256"
        },
        {
          "indexed": false,
          "internalType": "bytes",
          "name": "data",
          "type": "bytes"
        }
      ],
      "name": "SubmitTransaction",
      "type": "event"
    },
    {
      "inputs": [
        {
          "internalType": "uint256",
          "name": "",
          "type": "uint256"
        }
      ],
      "name": "isApproved",
      "outputs": [
        {
          "internalType": "bool",
          "name": "",
          "type": "bool"
        }
      ],
      "stateMutability": "view",
      "type": "function",
      "constant": true
    },
    {
      "inputs": [
        {
          "internalType": "address",
          "name": "",
          "type": "address"
        }
      ],
      "name": "isOwner",
      "outputs": [
        {
          "internalType": "bool",
          "name": "",
          "type": "bool"
        }
      ],
      "stateMutability": "view",
      "type": "function",
      "constant": true
    },
    {
      "inputs": [
        {
          "internalType": "uint256",
          "name": "",
          "type": "uint256"
        }
      ],
      "name": "isRejected",
      "outputs": [
        {
          "internalType": "bool",
          "name": "",
          "type": "bool"
        }
      ],
      "stateMutability": "view",
      "type": "function",
      "constant": true
    },
    {
      "inputs": [],
      "name": "lastTx",
      "outputs": [
        {
          "internalType": "uint256",
          "name": "",
          "type": "uint256"
        }
      ],
      "stateMutability": "view",
      "type": "function",
      "constant": true
    },
    {
      "inputs": [],
      "name": "numConfirmationsRequired",
      "outputs": [
        {
          "internalType": "uint256",
          "name": "",
          "type": "uint256"
        }
      ],
      "stateMutability": "view",
      "type": "function",
      "constant": true
    },
    {
      "inputs": [
        {
          "internalType": "uint256",
          "name": "",
          "type": "uint256"
        }
      ],
      "name": "owners",
      "outputs": [
        {
          "internalType": "address",
          "name": "",
          "type": "address"
        }
      ],
      "stateMutability": "view",
      "type": "function",
      "constant": true
    },
    {
      "inputs": [
        {
          "internalType": "uint256",
          "name": "",
          "type": "uint256"
        }
      ],
      "name": "transactions",
      "outputs": [
        {
          "internalType": "address",
          "name": "to",
          "type": "address"
        },
        {
          "internalType": "uint256",
          "name": "value",
          "type": "uint256"
        },
        {
          "internalType": "bytes",
          "name": "data",
          "type": "bytes"
        },
        {
          "internalType": "bool",
          "name": "executed",
          "type": "bool"
        },
        {
          "internalType": "uint256",
          "name": "numApprovals",
          "type": "uint256"
        },
        {
          "internalType": "uint256",
          "name": "numRejections",
          "type": "uint256"
        }
      ],
      "stateMutability": "view",
      "type": "function",
      "constant": true
    },
    {
      "stateMutability": "payable",
      "type": "receive",
      "payable": true
    },
    {
      "inputs": [],
      "name": "noPendingTx",
      "outputs": [
        {
          "internalType": "bool",
          "name": "",
          "type": "bool"
        }
      ],
      "stateMutability": "view",
      "type": "function",
      "constant": true
    },
    {
      "inputs": [
        {
          "internalType": "uint256",
          "name": "_txIndex",
          "type": "uint256"
        }
      ],
      "name": "notRespondedYet",
      "outputs": [
        {
          "internalType": "bool",
          "name": "",
          "type": "bool"
        }
      ],
      "stateMutability": "view",
      "type": "function",
      "constant": true
    },
    {
      "inputs": [
        {
          "internalType": "address",
          "name": "_to",
          "type": "address"
        },
        {
          "internalType": "uint256",
          "name": "_value",
          "type": "uint256"
        },
        {
          "internalType": "bytes",
          "name": "_data",
          "type": "bytes"
        }
      ],
      "name": "submitTransaction",
      "outputs": [],
      "stateMutability": "nonpayable",
      "type": "function"
    },
    {
      "inputs": [
        {
          "internalType": "uint256",
          "name": "_txIndex",
          "type": "uint256"
        }
      ],
      "name": "approveTransaction",
      "outputs": [],
      "stateMutability": "nonpayable",
      "type": "function"
    },
    {
      "inputs": [
        {
          "internalType": "uint256",
          "name": "_txIndex",
          "type": "uint256"
        }
      ],
      "name": "executeTransaction",
      "outputs": [],
      "stateMutability": "nonpayable",
      "type": "function"
    },
    {
      "inputs": [
        {
          "internalType": "uint256",
          "name": "_txIndex",
          "type": "uint256"
        }
      ],
      "name": "rejectTransaction",
      "outputs": [],
      "stateMutability": "nonpayable",
      "type": "function"
    },
    {
      "inputs": [],
      "name": "getOwners",
      "outputs": [
        {
          "internalType": "address[]",
          "name": "",
          "type": "address[]"
        }
      ],
      "stateMutability": "view",
      "type": "function",
      "constant": true
    },
    {
      "inputs": [],
      "name": "getTransactionCount",
      "outputs": [
        {
          "internalType": "uint256",
          "name": "",
          "type": "uint256"
        }
      ],
      "stateMutability": "view",
      "type": "function",
      "constant": true
    },
    {
      "inputs": [
        {
          "internalType": "uint256",
          "name": "_txIndex",
          "type": "uint256"
        }
      ],
      "name": "getTransaction",
      "outputs": [
        {
          "internalType": "address",
          "name": "to",
          "type": "address"
        },
        {
          "internalType": "uint256",
          "name": "value",
          "type": "uint256"
        },
        {
          "internalType": "bytes",
          "name": "data",
          "type": "bytes"
        },
        {
          "internalType": "bool",
          "name": "executed",
          "type": "bool"
        },
        {
          "internalType": "uint256",
          "name": "numApprovals",
          "type": "uint256"
        },
        {
          "internalType": "uint256",
          "name": "numRejections",
          "type": "uint256"
        }
      ],
      "stateMutability": "view",
      "type": "function",
      "constant": true
    }
  ],
  "bytecode": "0x60806040523480156200001157600080fd5b50604051620027bf380380620027bf8339818101604052810190620000379190620003e2565b60008251116200007e576040517f08c379a000000000000000000000000000000000000000000000000000000000815260040162000075906200058c565b60405180910390fd5b60008111801562000090575081518111155b620000d2576040517f08c379a0000000000000000000000000000000000000000000000000000000008152600401620000c990620005d0565b60405180910390fd5b60005b8251811015620002f95760008382815181106200011b577f4e487b7100000000000000000000000000000000000000000000000000000000600052603260045260246000fd5b60200260200101519050600073ffffffffffffffffffffffffffffffffffffffff168173ffffffffffffffffffffffffffffffffffffffff16141562000198576040517f08c379a00000000000000000000000000000000000000000000000000000000081526004016200018f90620005ae565b60405180910390fd5b600160008273ffffffffffffffffffffffffffffffffffffffff1673ffffffffffffffffffffffffffffffffffffffff16815260200190815260200160002060009054906101000a900460ff161562000228576040517f08c379a00000000000000000000000000000000000000000000000000000000081526004016200021f906200056a565b60405180910390fd5b60018060008373ffffffffffffffffffffffffffffffffffffffff1673ffffffffffffffffffffffffffffffffffffffff16815260200190815260200160002060006101000a81548160ff0219169083151502179055506000819080600181540180825580915050600190039060005260206000200160009091909190916101000a81548173ffffffffffffffffffffffffffffffffffffffff021916908373ffffffffffffffffffffffffffffffffffffffff160217905550508080620002f090620006a4565b915050620000d5565b5080600281905550600019600681905550505062000784565b600062000329620003238462000626565b620005f2565b905080838252602082019050828560208602820111156200034957600080fd5b60005b858110156200037d578162000362888262000387565b8452602084019350602083019250506001810190506200034c565b5050509392505050565b600081519050620003988162000750565b92915050565b600082601f830112620003b057600080fd5b8151620003c284826020860162000312565b91505092915050565b600081519050620003dc816200076a565b92915050565b60008060408385031215620003f657600080fd5b600083015167ffffffffffffffff8111156200041157600080fd5b6200041f858286016200039e565b92505060206200043285828601620003cb565b9150509250929050565b60006200044b60108362000655565b91507f6f776e6572206e6f7420756e69717565000000000000000000000000000000006000830152602082019050919050565b60006200048d600f8362000655565b91507f6f776e65727320726571756972656400000000000000000000000000000000006000830152602082019050919050565b6000620004cf600d8362000655565b91507f696e76616c6964206f776e6572000000000000000000000000000000000000006000830152602082019050919050565b60006200051160288362000655565b91507f696e76616c6964206e756d626572206f6620726571756972656420636f6e666960008301527f726d6174696f6e730000000000000000000000000000000000000000000000006020830152604082019050919050565b6000602082019050818103600083015262000585816200043c565b9050919050565b60006020820190508181036000830152620005a7816200047e565b9050919050565b60006020820190508181036000830152620005c981620004c0565b9050919050565b60006020820190508181036000830152620005eb8162000502565b9050919050565b6000604051905081810181811067ffffffffffffffff821117156200061c576200061b62000721565b5b8060405250919050565b600067ffffffffffffffff82111562000644576200064362000721565b5b602082029050602081019050919050565b600082825260208201905092915050565b600062000673826200067a565b9050919050565b600073ffffffffffffffffffffffffffffffffffffffff82169050919050565b6000819050919050565b6000620006b1826200069a565b91507fffffffffffffffffffffffffffffffffffffffffffffffffffffffffffffffff821415620006e757620006e6620006f2565b5b600182019050919050565b7f4e487b7100000000000000000000000000000000000000000000000000000000600052601160045260246000fd5b7f4e487b7100000000000000000000000000000000000000000000000000000000600052604160045260246000fd5b6200075b8162000666565b81146200076757600080fd5b50565b62000775816200069a565b81146200078157600080fd5b50565b61202b80620007946000396000f3fe6080604052600436106100f75760003560e01c806333ea3dc81161008a578063a0e67e2b11610059578063a0e67e2b146103db578063c642747414610406578063d0549b851461042f578063ee22610b1461045a5761014e565b806333ea3dc8146102ef5780637910867b14610331578063927bfb0d1461036e5780639ace38c2146103995761014e565b80631727fd10116100c65780631727fd1014610233578063242232d11461025e5780632e7700f0146102875780632f54bf6e146102b25761014e565b8063025e7c271461015357806305bf37aa14610190578063098f076e146101b95780630bb0255a146101f65761014e565b3661014e573373ffffffffffffffffffffffffffffffffffffffff167f90890809c654f11d6e72a28fa60149770a0d11ec6c92319d6ceb2bb0a4ea1a153447604051610144929190611cd3565b60405180910390a2005b600080fd5b34801561015f57600080fd5b5061017a6004803603810190610175919061177e565b610483565b6040516101879190611ae8565b60405180910390f35b34801561019c57600080fd5b506101b760048036038101906101b2919061177e565b6104c2565b005b3480156101c557600080fd5b506101e060048036038101906101db919061177e565b610836565b6040516101ed9190611b8d565b60405180910390f35b34801561020257600080fd5b5061021d6004803603810190610218919061177e565b610856565b60405161022a9190611b8d565b60405180910390f35b34801561023f57600080fd5b506102486108bd565b6040516102559190611b8d565b60405180910390f35b34801561026a57600080fd5b506102856004803603810190610280919061177e565b610969565b005b34801561029357600080fd5b5061029c610ccc565b6040516102a99190611c88565b60405180910390f35b3480156102be57600080fd5b506102d960048036038101906102d491906116ee565b610cd9565b6040516102e69190611b8d565b60405180910390f35b3480156102fb57600080fd5b506103166004803603810190610311919061177e565b610cf9565b60405161032896959493929190611b03565b60405180910390f35b34801561033d57600080fd5b506103586004803603810190610353919061177e565b610e3a565b6040516103659190611b8d565b60405180910390f35b34801561037a57600080fd5b50610383610e5a565b6040516103909190611c88565b60405180910390f35b3480156103a557600080fd5b506103c060048036038101906103bb919061177e565b610e60565b6040516103d296959493929190611b03565b60405180910390f35b3480156103e757600080fd5b506103f0610f61565b6040516103fd9190611b6b565b60405180910390f35b34801561041257600080fd5b5061042d60048036038101906104289190611717565b610fef565b005b34801561043b57600080fd5b50610444611258565b6040516104519190611c88565b60405180910390f35b34801561046657600080fd5b50610481600480360381019061047c919061177e565b61125e565b005b6000818154811061049357600080fd5b906000526020600020016000915054906101000a900473ffffffffffffffffffffffffffffffffffffffff1681565b600160003373ffffffffffffffffffffffffffffffffffffffff1673ffffffffffffffffffffffffffffffffffffffff16815260200190815260200160002060009054906101000a900460ff1661054e576040517f08c379a000000000000000000000000000000000000000000000000000000000815260040161054590611c68565b60405180910390fd5b806007805490508110610596576040517f08c379a000000000000000000000000000000000000000000000000000000000815260040161058d90611be8565b60405180910390fd5b81600781815481106105d1577f4e487b7100000000000000000000000000000000000000000000000000000000600052603260045260246000fd5b906000526020600020906006020160030160009054906101000a900460ff1615610630576040517f08c379a000000000000000000000000000000000000000000000000000000000815260040161062790611c28565b60405180910390fd5b826003600082815260200190815260200160002060003373ffffffffffffffffffffffffffffffffffffffff1673ffffffffffffffffffffffffffffffffffffffff16815260200190815260200160002060009054906101000a900460ff16156106cf576040517f08c379a00000000000000000000000000000000000000000000000000000000081526004016106c690611c08565b60405180910390fd5b60016003600083815260200190815260200160002060003373ffffffffffffffffffffffffffffffffffffffff1673ffffffffffffffffffffffffffffffffffffffff16815260200190815260200160002060006101000a81548160ff021916908315150217905550600060078581548110610774577f4e487b7100000000000000000000000000000000000000000000000000000000600052603260045260246000fd5b9060005260206000209060060201905060018160050160008282546107999190611de3565b9250508190555060025481600501546000805490506107b89190611e39565b10156107eb5760016005600087815260200190815260200160002060006101000a81548160ff0219169083151502179055505b843373ffffffffffffffffffffffffffffffffffffffff167f37d7286dbb2f5a308161b6fdd908127173dffde6c58774bd9aecfc796d3c97f260405160405180910390a35050505050565b60056020528060005260406000206000915054906101000a900460ff1681565b60006003600083815260200190815260200160002060003373ffffffffffffffffffffffffffffffffffffffff1673ffffffffffffffffffffffffffffffffffffffff16815260200190815260200160002060009054906101000a900460ff169050919050565b600080600654905060001960065414156108db576001915050610966565b600060078281548110610917577f4e487b7100000000000000000000000000000000000000000000000000000000600052603260045260246000fd5b906000526020600020906006020160030160009054906101000a900460ff168061095e57506005600083815260200190815260200160002060009054906101000a900460ff165b905080925050505b90565b600160003373ffffffffffffffffffffffffffffffffffffffff1673ffffffffffffffffffffffffffffffffffffffff16815260200190815260200160002060009054906101000a900460ff166109f5576040517f08c379a00000000000000000000000000000000000000000000000000000000081526004016109ec90611c68565b60405180910390fd5b806007805490508110610a3d576040517f08c379a0000000000000000000000000000000000000000000000000000000008152600401610a3490611be8565b60405180910390fd5b8160078181548110610a78577f4e487b7100000000000000000000000000000000000000000000000000000000600052603260045260246000fd5b906000526020600020906006020160030160009054906101000a900460ff1615610ad7576040517f08c379a0000000000000000000000000000000000000000000000000000000008152600401610ace90611c28565b60405180910390fd5b826003600082815260200190815260200160002060003373ffffffffffffffffffffffffffffffffffffffff1673ffffffffffffffffffffffffffffffffffffffff16815260200190815260200160002060009054906101000a900460ff1615610b76576040517f08c379a0000000000000000000000000000000000000000000000000000000008152600401610b6d90611c08565b60405180910390fd5b60016003600083815260200190815260200160002060003373ffffffffffffffffffffffffffffffffffffffff1673ffffffffffffffffffffffffffffffffffffffff16815260200190815260200160002060006101000a81548160ff021916908315150217905550600060078581548110610c1b577f4e487b7100000000000000000000000000000000000000000000000000000000600052603260045260246000fd5b906000526020600020906006020190506001816004016000828254610c409190611de3565b92505081905550600254816004015410610c815760016004600087815260200190815260200160002060006101000a81548160ff0219169083151502179055505b843373ffffffffffffffffffffffffffffffffffffffff167ffa624aadd8a0eae4ee975eae5cf13c9803b361b7fa2d832427db6207c088219360405160405180910390a35050505050565b6000600780549050905090565b60016020528060005260406000206000915054906101000a900460ff1681565b600080606060008060008060078881548110610d3e577f4e487b7100000000000000000000000000000000000000000000000000000000600052603260045260246000fd5b906000526020600020906006020190508060000160009054906101000a900473ffffffffffffffffffffffffffffffffffffffff168160010154826002018360030160009054906101000a900460ff1684600401548560050154838054610da490611ef7565b80601f0160208091040260200160405190810160405280929190818152602001828054610dd090611ef7565b8015610e1d5780601f10610df257610100808354040283529160200191610e1d565b820191906000526020600020905b815481529060010190602001808311610e0057829003601f168201915b505050505093509650965096509650965096505091939550919395565b60046020528060005260406000206000915054906101000a900460ff1681565b60065481565b60078181548110610e7057600080fd5b90600052602060002090600602016000915090508060000160009054906101000a900473ffffffffffffffffffffffffffffffffffffffff1690806001015490806002018054610ebf90611ef7565b80601f0160208091040260200160405190810160405280929190818152602001828054610eeb90611ef7565b8015610f385780601f10610f0d57610100808354040283529160200191610f38565b820191906000526020600020905b815481529060010190602001808311610f1b57829003601f168201915b5050505050908060030160009054906101000a900460ff16908060040154908060050154905086565b60606000805480602002602001604051908101604052809291908181526020018280548015610fe557602002820191906000526020600020905b8160009054906101000a900473ffffffffffffffffffffffffffffffffffffffff1673ffffffffffffffffffffffffffffffffffffffff1681526020019060010190808311610f9b575b5050505050905090565b600160003373ffffffffffffffffffffffffffffffffffffffff1673ffffffffffffffffffffffffffffffffffffffff16815260200190815260200160002060009054906101000a900460ff1661107b576040517f08c379a000000000000000000000000000000000000000000000000000000000815260040161107290611c68565b60405180910390fd5b6110836108bd565b6110c2576040517f08c379a00000000000000000000000000000000000000000000000000000000081526004016110b990611bc8565b60405180910390fd5b600060078054905090508060068190555060076040518060c001604052808673ffffffffffffffffffffffffffffffffffffffff168152602001858152602001848152602001600015158152602001600081526020016000815250908060018154018082558091505060019003906000526020600020906006020160009091909190915060008201518160000160006101000a81548173ffffffffffffffffffffffffffffffffffffffff021916908373ffffffffffffffffffffffffffffffffffffffff1602179055506020820151816001015560408201518160020190805190602001906111b39291906115b9565b5060608201518160030160006101000a81548160ff0219169083151502179055506080820151816004015560a0820151816005015550508373ffffffffffffffffffffffffffffffffffffffff16813373ffffffffffffffffffffffffffffffffffffffff167fd5a05bf70715ad82a09a756320284a1b54c9ff74cd0f8cce6219e79b563fe59d868660405161124a929190611ca3565b60405180910390a450505050565b60025481565b600160003373ffffffffffffffffffffffffffffffffffffffff1673ffffffffffffffffffffffffffffffffffffffff16815260200190815260200160002060009054906101000a900460ff166112ea576040517f08c379a00000000000000000000000000000000000000000000000000000000081526004016112e190611c68565b60405180910390fd5b806007805490508110611332576040517f08c379a000000000000000000000000000000000000000000000000000000000815260040161132990611be8565b60405180910390fd5b816007818154811061136d577f4e487b7100000000000000000000000000000000000000000000000000000000600052603260045260246000fd5b906000526020600020906006020160030160009054906101000a900460ff16156113cc576040517f08c379a00000000000000000000000000000000000000000000000000000000081526004016113c390611c28565b60405180910390fd5b600060078481548110611408577f4e487b7100000000000000000000000000000000000000000000000000000000600052603260045260246000fd5b906000526020600020906006020190506004600085815260200190815260200160002060009054906101000a900460ff16611478576040517f08c379a000000000000000000000000000000000000000000000000000000000815260040161146f90611c48565b60405180910390fd5b60018160030160006101000a81548160ff02191690831515021790555060008160000160009054906101000a900473ffffffffffffffffffffffffffffffffffffffff1673ffffffffffffffffffffffffffffffffffffffff168260010154836002016040516114e89190611ad1565b60006040518083038185875af1925050503d8060008114611525576040519150601f19603f3d011682016040523d82523d6000602084013e61152a565b606091505b505090508061156e576040517f08c379a000000000000000000000000000000000000000000000000000000000815260040161156590611ba8565b60405180910390fd5b843373ffffffffffffffffffffffffffffffffffffffff167f5445f318f4f5fcfb66592e68e0cc5822aa15664039bd5f0ffde24c5a8142b1ac60405160405180910390a35050505050565b8280546115c590611ef7565b90600052602060002090601f0160209004810192826115e7576000855561162e565b82601f1061160057805160ff191683800117855561162e565b8280016001018555821561162e579182015b8281111561162d578251825591602001919060010190611612565b5b50905061163b919061163f565b5090565b5b80821115611658576000816000905550600101611640565b5090565b600061166f61166a84611d2d565b611cfc565b90508281526020810184848401111561168757600080fd5b611692848285611eb5565b509392505050565b6000813590506116a981611fc7565b92915050565b600082601f8301126116c057600080fd5b81356116d084826020860161165c565b91505092915050565b6000813590506116e881611fde565b92915050565b60006020828403121561170057600080fd5b600061170e8482850161169a565b91505092915050565b60008060006060848603121561172c57600080fd5b600061173a8682870161169a565b935050602061174b868287016116d9565b925050604084013567ffffffffffffffff81111561176857600080fd5b611774868287016116af565b9150509250925092565b60006020828403121561179057600080fd5b600061179e848285016116d9565b91505092915050565b60006117b383836117bf565b60208301905092915050565b6117c881611e6d565b82525050565b6117d781611e6d565b82525050565b60006117e882611d82565b6117f28185611da5565b93506117fd83611d5d565b8060005b8381101561182e57815161181588826117a7565b975061182083611d98565b925050600181019050611801565b5085935050505092915050565b61184481611e7f565b82525050565b600061185582611d8d565b61185f8185611db6565b935061186f818560208601611ec4565b61187881611fb6565b840191505092915050565b6000815461189081611ef7565b61189a8186611dc7565b945060018216600081146118b557600181146118c6576118f9565b60ff198316865281860193506118f9565b6118cf85611d6d565b60005b838110156118f1578154818901526001820191506020810190506118d2565b838801955050505b50505092915050565b600061190f600983611dd2565b91507f7478206661696c656400000000000000000000000000000000000000000000006000830152602082019050919050565b600061194f600f83611dd2565b91507f612074782069732070656e64696e6700000000000000000000000000000000006000830152602082019050919050565b600061198f601183611dd2565b91507f747820646f6573206e6f742065786973740000000000000000000000000000006000830152602082019050919050565b60006119cf601b83611dd2565b91507f616c726561647920726573706f6e64656420746f2074686520747800000000006000830152602082019050919050565b6000611a0f601383611dd2565b91507f747820616c7265616479206578656375746564000000000000000000000000006000830152602082019050919050565b6000611a4f601183611dd2565b91507f63616e6e6f7420657865637574652074780000000000000000000000000000006000830152602082019050919050565b6000611a8f600983611dd2565b91507f6e6f74206f776e657200000000000000000000000000000000000000000000006000830152602082019050919050565b611acb81611eab565b82525050565b6000611add8284611883565b915081905092915050565b6000602082019050611afd60008301846117ce565b92915050565b600060c082019050611b1860008301896117ce565b611b256020830188611ac2565b8181036040830152611b37818761184a565b9050611b46606083018661183b565b611b536080830185611ac2565b611b6060a0830184611ac2565b979650505050505050565b60006020820190508181036000830152611b8581846117dd565b905092915050565b6000602082019050611ba2600083018461183b565b92915050565b60006020820190508181036000830152611bc181611902565b9050919050565b60006020820190508181036000830152611be181611942565b9050919050565b60006020820190508181036000830152611c0181611982565b9050919050565b60006020820190508181036000830152611c21816119c2565b9050919050565b60006020820190508181036000830152611c4181611a02565b9050919050565b60006020820190508181036000830152611c6181611a42565b9050919050565b60006020820190508181036000830152611c8181611a82565b9050919050565b6000602082019050611c9d6000830184611ac2565b92915050565b6000604082019050611cb86000830185611ac2565b8181036020830152611cca818461184a565b90509392505050565b6000604082019050611ce86000830185611ac2565b611cf56020830184611ac2565b9392505050565b6000604051905081810181811067ffffffffffffffff82111715611d2357611d22611f87565b5b8060405250919050565b600067ffffffffffffffff821115611d4857611d47611f87565b5b601f19601f8301169050602081019050919050565b6000819050602082019050919050565b60008190508160005260206000209050919050565b600081519050919050565b600081519050919050565b6000602082019050919050565b600082825260208201905092915050565b600082825260208201905092915050565b600081905092915050565b600082825260208201905092915050565b6000611dee82611eab565b9150611df983611eab565b9250827fffffffffffffffffffffffffffffffffffffffffffffffffffffffffffffffff03821115611e2e57611e2d611f29565b5b828201905092915050565b6000611e4482611eab565b9150611e4f83611eab565b925082821015611e6257611e61611f29565b5b828203905092915050565b6000611e7882611e8b565b9050919050565b60008115159050919050565b600073ffffffffffffffffffffffffffffffffffffffff82169050919050565b6000819050919050565b82818337600083830152505050565b60005b83811015611ee2578082015181840152602081019050611ec7565b83811115611ef1576000848401525b50505050565b60006002820490506001821680611f0f57607f821691505b60208210811415611f2357611f22611f58565b5b50919050565b7f4e487b7100000000000000000000000000000000000000000000000000000000600052601160045260246000fd5b7f4e487b7100000000000000000000000000000000000000000000000000000000600052602260045260246000fd5b7f4e487b7100000000000000000000000000000000000000000000000000000000600052604160045260246000fd5b6000601f19601f8301169050919050565b611fd081611e6d565b8114611fdb57600080fd5b50565b611fe781611eab565b8114611ff257600080fd5b5056fea2646970667358221220761104a3b1af777e174786b77ab921588a1a4be5b82dd7f4ebaa7f392b1189d764736f6c63430008000033",
  "immutableReferences": {},
  "source": "// SPDX-License-Identifier: MIT\r\npragma solidity ^0.8.0;\r\n\r\ncontract MultiSigWallet {\r\n    event Deposit(address indexed sender, uint amount, uint balance);\r\n    event SubmitTransaction(\r\n        address indexed owner,\r\n        uint indexed txIndex,\r\n        address indexed to,\r\n        uint value,\r\n        bytes data\r\n    );\r\n    event ApproveTransaction(address indexed owner, uint indexed txIndex);\r\n    event RejectTransaction(address indexed owner, uint indexed txIndex);\r\n    event ExecuteTransaction(address indexed owner, uint indexed txIndex);\r\n\r\n    address[] public owners;\r\n    mapping(address => bool) public isOwner;\r\n    uint public numConfirmationsRequired;\r\n\r\n    struct Transaction {\r\n        address to;\r\n        uint value;\r\n        bytes data;\r\n        bool executed;\r\n        uint numApprovals;\r\n        uint numRejections;\r\n    }\r\n\r\n    // mapping from tx index => owner => bool\r\n    mapping(uint => mapping(address => bool)) private responded;\r\n\r\n    mapping(uint => bool) public isApproved;\r\n    mapping(uint => bool) public isRejected;\r\n\r\n    uint public lastTx;\r\n\r\n    Transaction[] public transactions;\r\n\r\n    modifier onlyOwner() {\r\n        require(isOwner[msg.sender], \"not owner\");\r\n        _;\r\n    }\r\n\r\n    modifier txExists(uint _txIndex) {\r\n        require(_txIndex < transactions.length, \"tx does not exist\");\r\n        _;\r\n    }\r\n\r\n    modifier canSubmit() {\r\n        require(noPendingTx(), \"a tx is pending\");\r\n        _;\r\n    }\r\n\r\n    modifier notExecuted(uint _txIndex) {\r\n        require(!transactions[_txIndex].executed, \"tx already executed\");\r\n        _;\r\n    }\r\n\r\n    modifier notResponded(uint _txIndex) {\r\n        require(!responded[_txIndex][msg.sender], \"already responded to the tx\");\r\n        responded[_txIndex][msg.sender] = true;\r\n        _;\r\n    }\r\n\r\n    constructor(address[] memory _owners, uint _numConfirmationsRequired) {\r\n        require(_owners.length > 0, \"owners required\");\r\n        require(\r\n            _numConfirmationsRequired > 0 && _numConfirmationsRequired <= _owners.length,\r\n            \"invalid number of required confirmations\"\r\n        );\r\n\r\n        for (uint i = 0; i < _owners.length; i++) {\r\n            address owner = _owners[i];\r\n\r\n            require(owner != address(0), \"invalid owner\");\r\n            require(!isOwner[owner], \"owner not unique\");\r\n\r\n            isOwner[owner] = true;\r\n            owners.push(owner);\r\n        }\r\n\r\n        numConfirmationsRequired = _numConfirmationsRequired;\r\n        lastTx = ~uint(0);\r\n    }\r\n\r\n    receive() payable external {\r\n        emit Deposit(msg.sender, msg.value, address(this).balance);\r\n    }\r\n\r\n    function noPendingTx() public view returns(bool) {\r\n        uint _txIndex = lastTx;\r\n        if(lastTx == ~uint(0)) return true;\r\n        bool status = (transactions[_txIndex].executed) || (isRejected[_txIndex]);\r\n        return status;\r\n    }\r\n\r\n    function notRespondedYet(uint _txIndex) external view returns(bool) {\r\n        return responded[_txIndex][msg.sender];\r\n    }\r\n\r\n    function submitTransaction(address _to, uint _value, bytes memory _data)\r\n        public\r\n        onlyOwner\r\n        canSubmit\r\n    {\r\n        uint txIndex = transactions.length;\r\n        lastTx = txIndex;\r\n\r\n        transactions.push(Transaction({\r\n            to: _to,\r\n            value: _value,\r\n            data: _data,\r\n            executed: false,\r\n            numApprovals: 0,\r\n            numRejections: 0\r\n        }));\r\n\r\n        emit SubmitTransaction(msg.sender, txIndex, _to, _value, _data);\r\n    }\r\n\r\n    function approveTransaction(uint _txIndex)\r\n        public\r\n        onlyOwner\r\n        txExists(_txIndex)\r\n        notExecuted(_txIndex)\r\n        notResponded(_txIndex)\r\n    {\r\n        Transaction storage transaction = transactions[_txIndex];\r\n        transaction.numApprovals += 1;\r\n        if(transaction.numApprovals >= numConfirmationsRequired) isApproved[_txIndex] = true;\r\n\r\n        emit ApproveTransaction(msg.sender, _txIndex);\r\n    }\r\n\r\n    function executeTransaction(uint _txIndex)\r\n        public\r\n        onlyOwner\r\n        txExists(_txIndex)\r\n        notExecuted(_txIndex)\r\n    {\r\n        Transaction storage transaction = transactions[_txIndex];\r\n\r\n        require(\r\n            isApproved[_txIndex],\r\n            \"cannot execute tx\"\r\n        );\r\n\r\n        transaction.executed = true;\r\n\r\n        (bool success, ) = transaction.to.call{value: transaction.value}(transaction.data);\r\n        require(success, \"tx failed\");\r\n\r\n        emit ExecuteTransaction(msg.sender, _txIndex);\r\n    }\r\n\r\n    function rejectTransaction(uint _txIndex)\r\n        public\r\n        onlyOwner\r\n        txExists(_txIndex)\r\n        notExecuted(_txIndex)\r\n        notResponded(_txIndex)\r\n    {\r\n        Transaction storage transaction = transactions[_txIndex];\r\n\r\n        transaction.numRejections += 1;\r\n        if(owners.length - transaction.numRejections < numConfirmationsRequired) isRejected[_txIndex] = true;\r\n\r\n        emit RejectTransaction(msg.sender, _txIndex);\r\n    }\r\n\r\n    function getOwners() public view returns (address[] memory) {\r\n        return owners;\r\n    }\r\n\r\n    function getTransactionCount() public view returns (uint) {\r\n        return transactions.length;\r\n    }\r\n\r\n    function getTransaction(uint _txIndex)\r\n        public\r\n        view\r\n        returns (address to, uint value, bytes memory data, bool executed, uint numApprovals, uint numRejections)\r\n    {\r\n        Transaction storage transaction = transactions[_txIndex];\r\n\r\n        return (\r\n            transaction.to,\r\n            transaction.value,\r\n            transaction.data,\r\n            transaction.executed,\r\n            transaction.numApprovals,\r\n            transaction.numRejections\r\n        );\r\n    }\r\n}\r\n",
  "sourcePath": "C:/Users/sudip/Desktop/CryptoProjects/MultiSigWallet/contracts/MultiSigWallet.sol",
  "compiler": {
    "name": "solc",
    "version": "0.8.0+commit.c7dfd78e.Emscripten.clang"
  },
  "schemaVersion": "3.3.4",
  "updatedAt": "2021-05-27T08:48:09.405Z",
  "networkType": "ethereum",
  "devdoc": {
    "kind": "dev",
    "methods": {},
    "version": 1
  },
  "userdoc": {
    "kind": "user",
    "methods": {},
    "version": 1
  }
}