{
  "contractName": "TestContract",
  "abi": [
    {
      "inputs": [],
      "name": "i",
      "outputs": [
        {
          "internalType": "uint256",
          "name": "",
          "type": "uint256"
        }
      ],
      "stateMutability": "view",
      "type": "function"
    },
    {
      "inputs": [
        {
          "internalType": "uint256",
          "name": "j",
          "type": "uint256"
        }
      ],
      "name": "callMe",
      "outputs": [],
      "stateMutability": "nonpayable",
      "type": "function"
    },
    {
      "inputs": [],
      "name": "getData",
      "outputs": [
        {
          "internalType": "bytes",
          "name": "",
          "type": "bytes"
        }
      ],
      "stateMutability": "pure",
      "type": "function"
    }
  ],
  "bytecode": "0x608060405234801561001057600080fd5b5061039d806100206000396000f3fe608060405234801561001057600080fd5b50600436106100415760003560e01c80633bc5de3014610046578063e5aa3d5814610064578063e73620c314610082575b600080fd5b61004e61009e565b60405161005b91906101ea565b60405180910390f35b61006c610134565b6040516100799190610227565b60405180910390f35b61009c6004803603810190610097919061016a565b61013a565b005b6060607b6040516024016100b2919061020c565b6040516020818303038152906040527fe73620c3000000000000000000000000000000000000000000000000000000007bffffffffffffffffffffffffffffffffffffffffffffffffffffffff19166020820180517bffffffffffffffffffffffffffffffffffffffffffffffffffffffff8381831617835250505050905090565b60005481565b8060008082825461014b919061025e565b9250508190555050565b60008135905061016481610350565b92915050565b60006020828403121561017c57600080fd5b600061018a84828501610155565b91505092915050565b600061019e82610242565b6101a8818561024d565b93506101b88185602086016102dd565b6101c18161033f565b840191505092915050565b6101d5816102cb565b82525050565b6101e4816102b4565b82525050565b600060208201905081810360008301526102048184610193565b905092915050565b600060208201905061022160008301846101cc565b92915050565b600060208201905061023c60008301846101db565b92915050565b600081519050919050565b600082825260208201905092915050565b6000610269826102b4565b9150610274836102b4565b9250827fffffffffffffffffffffffffffffffffffffffffffffffffffffffffffffffff038211156102a9576102a8610310565b5b828201905092915050565b6000819050919050565b600060ff82169050919050565b60006102d6826102be565b9050919050565b60005b838110156102fb5780820151818401526020810190506102e0565b8381111561030a576000848401525b50505050565b7f4e487b7100000000000000000000000000000000000000000000000000000000600052601160045260246000fd5b6000601f19601f8301169050919050565b610359816102b4565b811461036457600080fd5b5056fea2646970667358221220b1af02313d7d9caadf3a5b96d06ca060b3006892b5de077ab9ea4c5885190d1c64736f6c63430008000033",
  "immutableReferences": {},
  "source": "// SPDX-License-Identifier: MIT\r\npragma solidity ^0.8.0;\r\n\r\ncontract TestContract {\r\n    uint public i;\r\n\r\n    function callMe(uint j) public {\r\n        i += j;\r\n    }\r\n\r\n    function getData() public pure returns (bytes memory) {\r\n        return abi.encodeWithSignature(\"callMe(uint256)\", 123);\r\n    }\r\n}\r\n",
  "sourcePath": "C:/Users/sudip/Desktop/CryptoProjects/MultiSigWallet/contracts/Test.sol",
  "compiler": {
    "name": "solc",
    "version": "0.8.0+commit.c7dfd78e.Emscripten.clang"
  },
  "schemaVersion": "3.3.4",
  "updatedAt": "2021-05-24T15:30:21.816Z",
  "devdoc": {
    "kind": "dev",
    "methods": {},
    "version": 1
  },
  "userdoc": {
    "kind": "user",
    "methods": {},
    "version": 1
  }
}